:100000000C943E000C9448000C9448000C9448005A
:100010000C9448000C9448000C9448000C94510037
:100020000C9448000C9448000C9448000C94480030
:100030000C9448000C9448000C9448000C94480020
:100040000C9448000C9448000C9448000C94480010
:100050000C9448000C9448000C9448000C94480000
:100060000C9448000C9448000C9448000C944800F0
:100070000C9448000C9448000C94480011241FBEB6
:10008000CFEFD4E0DEBFCDBF0E9463000C946A00C6
:100090000C94000081E0809369008DBB80E090E0CB
:1000A00008951F920F920FB60F9211248F939F9372
:1000B00085B190E1892785B99F918F910F900FBEEF
:1000C0000F901F90189584B18FEF84B978940E9497
:0800D0004A00FFCFF894FFCFB6
:00000001FF
